:1000000033C0000039C0000037C0000035C0000018
:1000100033C0000031C000002FC000002DC0000020
:100020002BC0000029C0000027C0000025C0000030
:1000300023C0000021C000001FC000001DC0000040
:100040001BC0000019C0000017C0000015C0000050
:1000500013C0000011C000000FC000000DC0000060
:100060000BC0000009C0000011241FBECFEFD8E074
:10007000DEBFCDBF27D037C0C3CF3B9A389A3A9A5C
:10008000399A43984098429841980895569A559ABB
:100090005E9A5D9A089588B1866088B988B1867F36
:1000A00088B9089584B5816A84BD84B58D7A84BD8C
:1000B00085B5836085BD85B5837F85BD16BC17BCBE
:1000C00018BC0895E3DFEEDFD8DFE5DF80E0982F8E
:1000D000909597BD88BD8F5FEFE3FCE93197F1F70D
:0A00E00000C00000F4CFF894FFCF39
:00000001FF
